S0110000312E336B575F474D492E7372656383
S315080000001025002059AD0008ADAD00085BA2000818
S31508000010B1AD0008B5AD0008B9AD00080000000094
S315080000200000000000000000000000006DAE00089F
S31508000030BDAD0008000000006FAE0008BDA20008B4
S31508000040C1AD0008C5AD0008C9AD0008CDAD0008B2
S31508000050D1AD0008D5AD0008D9AD0008DDAD000862
S31508000060E1AD0008E5AD0008E9AD0008EDAD000812
S31508000070F1AD0008F5AD0008F9AD0008FDAD0008C2
S3150800008001AE000805AE0008ADA1000809AE0008DB
S315080000900DAE000811AE000815AE000819AE00082E
S315080000A0D1A10008C3A100081DAE000821AE0008B2
S315080000B025AE00080000000000000000F711000847
S315080000C06112000829AE00082DAE000800000000E5
S315080000D031AE00089376000803A2000835AE000882
S315080000E039AE00083DAE000841AE00080000000029
S315080000F000000000000000000000000000000000F2
S3150800010000000000000000000000000045AE0008E6
S31508000110000000000000000049AE000800000000D2
S3150800012000000000000000000000000000000000C1
S3150800013000000000000000000000000000000000B1
S315080001404DAE000851AE0008000000000000000097
S315080001500000000000000000000000000000000091
S3150800016055AE000859AE00085DAE000861AE00083D
S3150800017065AE000800000000000000000000000056
S315080001800000000069AE0008F0B5059C069D4668AB
S31508000190DFF8B87B47EA5557BE433143114341EA76
S315080001A00341214329434160F0BD38B50020009042
S315080001B0002300F032F8DFF8984B04F18001016063
S315080001C0206600230020009000F027F804F5A471AB
S315080001D00160606600230020009002221C21022094
S315080001E000F06AFE04F11C01016004F11C02DFF84C
S315080001F0641B0A600022636E23621A7500250B6869
S31508000200226E1A6015750B681D7604F504730A6864
S31508000210557209680B61A06631BD0222C821022009
S3150800022000F09EBE2DE9F84789B08246DFF8248B98
S31508000230DFF8244BDFF8186BDFF8209B1625FF271D
S3150800024002B3012A64D0022A00F0B180032A00F022
S31508000250BF80042A00F09A81052A00F0B781062A91
S3150800026000F0C381072A00F0D081082A00F0FB813C
S31508000270092A00F01E820A2A00F07C82FF2A00F072
S315080002809982B8E100F0D2FEFFF78FFF002414210F
S31508000290DFF8CC0A61434718384601F01DF8504587
S315080002A008BFB766641C0E2CF1DD504601F0D7F87E
S315080002B015FB00F5FF2809EB050106D009F109022F
S315080002C0C8205055B06EC1F80B00D1F80B00006875
S315080002D0C8F8000004214FF4157000F00FFCB1783F
S315080002E07067F12918BFFE29F4D10068DFF8D81A1B
S315080002F0884208D10022F27100F034FDF079F12825
S3150800030018BFFE28F8D101F016F9C6E912016AE10C
S31508000310C820D8F8001000900127086801F0F6F9FF
S315080003200C282EDBD8F8000000686B460022214610
S3150800033001F0A2F9B07A671C00E00846C2B2411C77
S31508000340A35C022BF9D1BA5C801800F10C02D2B278
S315080003500846A35C032BC9B201D0C829EEDBB072EC
S31508000360C0B2012804D0D8F80000491E00F03CFAB3
S31508000370B07A215CD8F800000D3100F035FA022772
S3150800038039E101F0D8F8D6E912239942F8D301D811
S315080003909042F5D301F0CFF8401C61F1FF31C6E970
S315080003A0120101F0C4F800F019FA062723E1E078F3
S315080003B0A17801EB0020042781B2FF293082D8BF3B
S315080003C0032701F0B4F800F009FA0022B27112E12D
S315080003D0607B217B328A012701EB00208AB1521EFD
S315080003E065D00F3A00F0AC804EF6F053D21A0ED014
S315080003F0521E64D0521E00F086800E3A00F0AF807E
S31508000400F9E0F0814FF46E410020B07054E000F03E
S31508000410DFF9102180B200F071FB054675670327E6
S31508000420B078F12818BFFE28EAD101A80FF668218E
S31508000430202201F059FA01A8217B627B01734273DD
S31508000440A17B81732A78C27369780174AA788DF8BA
S315080004501520E97881742A798DF81720697901754C
S31508000460AA798DF819202022E9798175287A8DF8DC
S315080004701B00687A8DF81C00A87A8DF81D00E87AAA
S315080004808DF81E00287B8DF81F00687B8DF82000EC
S31508000490A87B8DF82100E97BD8F800008DF822109A
S315080004A000926A46406801A901F0A1F89BE0F08134
S315080004B04EF6016100207071318203279BE001F03E
S315080004C036F800F08AF900F083F9012204F10E01EA
S315080004D080B200F083FB7079F12818BFFE280CD093
S315080004E001F025F800F070F9EDD301D89042EAD36F
S315080004F07079F12818BFFE287DD100204EF60261DA
S315080005007071318277E001F012F800F066F9F0892F
S31508000510400000F20120012204F10F0180B200F030
S315080005205DFB7079F12818BFFE285CD000F0FFFF4C
S3150800053000F04AF9EBD301D89042E8D3707940E04D
S3150800054081B22C2909DA00291CBF04290F2904D0F5
S315080005504EF61061318232720327F0814BE0032791
S31508000560F08900F033FC307AF12818BFFE2807D04E
S3150800057000F0DDFF00F028F9F2D301D89042EFD35E
S3150800058000F0D5FF00F02AF9307A1AE004276178DE
S315080005900D3189B2204600F081FB708200F0C7FF5A
S315080005A000F012F902D398BF904205D2B079F1282B
S315080005B019D0FE28EBD116E000F0B9FF00F00EF9CD
S315080005C0B079F1280FD0FE2815D10CE00020B070C4
S315080005D0B4214FF4007000F091FA7067B078F128F2
S315080005E018BFFE28F4D1012705E0707AC10706D5A1
S315080005F007270020B07038460AB0BDE8F08700F03B
S3150800060096FF00F0EBF80927F3E700F090FF0727BD
S3150800061000F0E4F8707800F0DCF8022180B200F00F
S315080006206DFAF066B078F12818BFFE280CD000F0F5
S315080006307EFF00F0C9F8EDD301D89042EAD3B0782E
S31508000640F12818BFFE28D6D1DFF82C08D0F81001FB
S3150800065001F056F9F16EB0810A88824228D200204C
S3150800066070710827C7E700F062FF082700F0B6F8A0
S31508000670B1898DF80010090A8DF80110707800F01C
S31508000680A8F80222694680B200F0A8FA7079F12823
S3150800069018BFFE280CD000F04AFF00F095F8EDD3FD
S315080006A001D89042EAD37079F12801D0FE28A2D168
S315080006B07CE0D6E9140109274FF0FF336FF00102F9
S315080006C0994208BF904241D100F031FF00F086F808
S315080006D0307800F07EF8082180B200F00FFA306713
S315080006E0B078F12818BFFE280CD000F020FF00F0E3
S315080006F06BF8EDD301D89042EAD3B078F12818BF49
S31508000700FE2822D10020C6E914000025306F405D7E
S3150800071050B1D6E914480021EA0001F0F7F820188C
S3150800072048EB0101C6E914016D1C082DEEDBD6E97C
S31508000730140101239942DFF8442706DB01DC9042C5
S3150800074003D3DFF83C47C6E9144354E700F0F3FE49
S31508000750D6E9142310185941C6E916010122914217
S31508000760DFF81C4722D828BFA0421FD200200A273C
S31508000770707140E700F0DBFE0A2700F02FF83078AA
S3150800078000F027F8082206F1580180B200F026FA90
S315080007907079F12818BFFE2808D000F0C8FE00F0CE
S315080007A013F8ECD301D89042E9D37CE7707A401C61
S315080007B0707218E700F053FEFF2804D009F10A0109
S315080007C015FB00F54F5516E7D6E9102399427047F1
S315080007D0F089400000F5007070470327C01C41F1FE
S315080007E00001C6E91001704700916A460068214673
S315080007F000F020BF2DE9FE43DFF858C5DFF8506545
S31508000800DCF80040DFF87CE613460022112B627202
S31508000810A8BF10230546EC0904F0FE0444F0A0091D
S3150800082090463779DFF860461A46AFB1012F1ED0D9
S31508000830022F2AD0032F67D0042F7AD0052F00F075
S315080008408380062F00F08580072F00F09380F12F14
S3150800085018BFFE2F53D098E000F086FC00F067FE24
S31508000860401C61F1FF31C6E90E0101225FE0A06973
S31508000870000444D400F05BFED6E90E2399423ED329
S3150800088001D890423BD3022038E0C7B2012BA762B9
S3150800089017D1206840F0020020604FF00070DCF8A5
S315080008A00020D1600090CDF804E0022300F077F82C
S315080008B000F03DFE401D41F10001C6E90E0107208A
S315080008C01CE0C0B2C10800EB11731B09B0EB0310A2
S315080008D008BF032012D05019B0F5006F12DA05F0E0
S315080008E0FF05E80805EB10710909A5EB011555196F
S315080008F0112DACBF0520042086F8038030714046D0
S31508000900BDE8FE830620F7E7206840F00200206075
S315080009104FF00070DCF80030D9600090CDF804E0A4
S31508000920531C00F03CF800F002FE00F031F832717A
S31508000930E5E70A464FF6FF7100F036F8F078F12839
S31508000940F1D0FE28DBD1EEE70A4600F1100189B2A4
S31508000950F2E70A46002100F027F8F078F12818BFD8
S31508000960FE28CCD100F0E3FD00F012F832714FF00A
S315080009700108C4E700F0DBFDD6E90E239942BED391
S3150800098001D89042BBD3F120B8E7FE213171B6E712
S31508000990401D41F10001C6E90E01072270470022F9
S315080009A049462046FFF7F0BB2DE9FC4705460009F6
S315080009B0DFF89C7392460001C5F110054519FA78CF
S315080009C0DFF8C094DFF88C83DFF8BC640C46EDB220
S315080009D062B1012A12D0022A1BD0032A44D0042A63
S315080009E076D0F12A18BFFE2A12D07DE00023BB700C
S315080009F0102100F083F8B867012073E0B978F1296F
S31508000A0014BFFE2902206DD0102100F077F8B867D0
S31508000A106CE0C5F11003BA6F5BB205E0EC185444FC
S31508000A2014F8104CD4545B1C102BF7DB336843F0D6
S31508000A30020333604FF00073D8F80040E260C2B298
S31508000A40C00900F0FE00B262009340F0A001CDF8A4
S31508000A500490112300223046FFF796FB00F067FD4D
S31508000A6000F046F8032231E000F061FDD7E90E23D5
S31508000A7099423BD301D8904238D321464FF6FF74AA
S31508000A80A14222D0306840F0020030600909D8F847
S31508000A90003009010AEB05024FF00070DA60CCB2AB
S31508000AA0C5F11005C909B4620090EDB201F0FE0166
S31508000AB0CDF804906B1C002241F0A0013046FFF7E8
S31508000AC063FB00F034FD00F013F80422FA700DE021
S31508000AD000F02DFDD7E90E23994207D301D890429D
S31508000AE004D3F120F87001E0FE21F970BDE8F38720
S31508000AF0401D41F10001C7E90E017047F8B50546EA
S31508000B000F467819B0F5006F914C5DDAA178DFF8D9
S31508000B107C03904E51B1012911D0022924D0032912
S31508000B203ED0F1294DD0FE2950D04DE0284600F0A0
S31508000B301BFB00F0FCFC00F04BF801222EE00068DD
S31508000B40000443D400F0F3FCD4E90E2399423DD3C4
S31508000B5001D890423AD3284600F006FB00F0E7FC9D
S31508000B6000F036F8022219E0006800042ED400F0DE
S31508000B70DEFCD4E90E23994228D301D8904225D326
S31508000B803946284600F008FB3168486100F0CFFC7A
S31508000B90C01D41F10001C4E90E010322A27015E04F
S31508000BA00068000412D400F0C2FCD4E90E2399426E
S31508000BB00CD301D8904209D3F120A0703168486956
S31508000BC0F2BD30684069F2BDFE20A0700020F2BD7B
S31508000BD0401C61F1FF31C4E90E017047F8B5DFF832
S31508000BE0B042002517186379B7F5006F1646A8BFF7
S31508000BF04FF0FF3550DAE77A00EB071001EB0711E3
S31508000C001F000CD0012B10D0022B10D0032B25D09F
S31508000C10042B2FD0F12B18BFFE2B1CD03CE0102A3A
S31508000C20E572B4BF0323012315E02571022363711E
S31508000C30102280B2FFF7DEFD2079F12818BFFE28C2
S31508000C4008D1E07A411CB0EB161F34BF01200320FF
S31508000C50E1726071637963712846F2BDD00802EBD0
S31508000C6010710909B2EB011202D025710423F2E7CB
S31508000C70F123F0E7F60802EB16773F096371A2EB5A
S31508000C800712D2B280B2FFF7B5FD20796379F12851
S31508000C90EED0FE28DFD1EBE7FE23DCE738B52C4C97
S31508000CA0A38A0D46A17961B101290FD0022927D05F
S31508000CB0032931D0042935D0F12918BFFE2942D09D
S31508000CC03FE000200122A070A2713CE002214FF40F
S31508000CD00070FFF713FFA178E067F12918BFFE2916
S31508000CE031D14178007800EB012015FA80F2B2F58F
S31508000CF0007FA8BF0020A08202210020607121E0A9
S31508000D000146EAB21846FFF769FF6079F12818BF6D
S31508000D10FE2818D1032012E0ED180020A5822071C4
S31508000D2004210FE0022204F114014FF40070FFF7CA
S31508000D3061FD2079F12818BFFE2804D1F120A071A1
S31508000D4001E0FE21A171A08A32BD0000FF7BFF03EE
S31508000D50C8060020D8200020901B0020C4130020BD
S31508000D607818002018B585B011220021684600F0D1
S31508000D70DEFD474CE07930B101280AD0F12818BFCA
S31508000D80FE281CD01DE00021E18220710121E171BD
S31508000D9015E0E08A000510226946000CFFF72AFDD7
S31508000DA02079F12818BFFE2809D1E08A401C0021C5
S31508000DB0217182B2802AA4BFF121E171E08206B0D6
S31508000DC010BDFE20E071FAE75163127338B5304C56
S31508000DD0E389217A5B0003F5007051B101290DD032
S31508000DE0022924D0032935D0F12918BFFE291DD0A0
S31508000DF03FE00020A0700122227231BD022180B29C
S31508000E00FFF77CFEA178F12918BFFE290DD1214AEA
S31508000E100188937BC9188BB24FF6F175AB4203DA9A
S31508000E2000220223227123722183606731BD0122C9
S31508000E3004F1180180B2FFF7DDFC2079F12818BF0C
S31508000E40FE28F3D10020218B2071090A2183032073
S31508000E50207231BD03F20123012204F1180198B270
S31508000E60FFF7C8FC2079F12818BFFE28DED1F1204B
S31508000E70EEE7FE21217231BDAC0B002081207F39BF
S31508000E8080207F390020008000540040185400401C
S31508000E90C8060020901B0020021300000000000076
S31508000EA000000000000000FFFFFFFFFFFFFFFFFF3D
S31508000EB0FFFFFFFFFFFFFF032DE9FC4782460C46B5
S31508000EC0002500261427DFF8948000F02BF85045FB
S31508000ED008D1484600F005FA864203D2484600F093
S31508000EE000FA06466D1CE8B20F28EEDB002500F076
S31508000EF019F8FF2805D06D1CE8B20F28F7DB00208B
S31508000F000EE00020019000900023224651464846F4
S31508000F1000F0C4F9761CF1B2484600F0E4F94846F8
S31508000F20BDE8F687E8B2784308EB0009484600F0C2
S31508000F30D3B938B50024E3B21425084A6B43D5184B
S31508000F40FF21284600F0CAF9FF21284600F0CBF910
S31508000F50641CE0B20F28EEDB012032BD78180020B1
S31508000F602DE9FE4380460C4600260027264D00F054
S31508000F702FF8404508D1484600F0D3FB874203D2F4
S31508000F80484600F0CEFB0746761CF0B20928EEDB91
S31508000F90002600F01DF8FF2805D0761CF0B20928B7
S31508000FA0F7DB002012E00020019000900023224683
S31508000FB04146484600F0CAFA7F1CF9B2484600F096
S31508000FC0ADFBF1B2484600F0AEFB4846BDE8FE83ED
S31508000FD0300605EBD049484600F09BBB38B50024DF
S31508000FE0094A230602EBD345FF21284600F093FB66
S31508000FF0FF21284600F092FB641CE0B20928EFDBCB
S31508001000012032BD00000000A4190020F0B5059C9F
S31508001010069D4668864F47EA5557BE4331431143F6
S3150800102041EA0341214329434160F0BD10B58EB022
S315080010301C22002107A800F07AFC1822002101A82A
S3150800104000F075FC7B4C206840F0010020602068A9
S315080010508007FCD54FF44072216821F0F80141F071
S3150800106080012160606940F480206061606900F455
S31508001070802000900098216B6F4821F010012163B1
S315080010800192022102910322012104910591039202
S315080010900421069101A900F065FCE06940F40010FE
S315080010A0E06140F20B22E069644C00F40010009005
S315080010B00098616841F000716160E06820F40040C2
S315080010C0E060216821F4002121600021206820F4D5
S315080010D00030206008920791099104220A92A02103
S315080010E00B9100220C920D9207A9204600F0C4FC31
S315080010F0E0686FF34A00E06051480168C1F30220D6
S31508001100C0F10702052A28BF042107D20122C0F12F
S31508001110070102FA01F1491E01F00401021D072A1E
S3150800112024BFC01E8140474A474B090111704FF042
S3150800113000401860216841F001012160206840F0F4
S3150800114008002060216841F010012160206840F005
S3150800115080002060216841F020012160206840F06D
S31508001160040020600EB010BD1CB5384A536801460D
S3150800117000205872CAB23148354B82620193C909B8
S315080011804FF0007401F0FE0100940123002241F0A3
S31508001190A001FFF73BFF13BD7CB52C4D0B466968D4
S315080011A0044600204872E2B224482A498262019124
S315080011B0E4094FF0007604F0FE040096002244F09D
S315080011C0A001FFF723FF6868006976BD1F48224B18
S315080011D04168CA68521CCA6012F8010D1860704747
S315080011E010B51E48194900684B680A781C69A0544E
S315080011F0521C0A7010BD1148816989060BD5C2694F
S3150800120042F02002C2610168104A21F00201016021
S315080012100020107070478169890748BFFFF7D6BF5D
S315080012208069400748BFFFF7DBBF70470000000032
S31508001230FF7BFF03001002400004004800540040F2
S315080012400CED00E01FE400E000E100E0D4200020FF
S3150800125000200080002400802854004024540040C8
S31508001260704730B4002513E050F8042BD30744BF69
S31508001270A9F101039A18091F042942F8045BFAD256
S3150800128013468C0744BF15809B1CC90748BF1D70B1
S3150800129050F8041B0029E7D130BC7047F8B504465E
S315080012A017460D461E46384600F01AFC18B9094975
S315080012B00A78521C0A700799069A20602174E2601F
S315080012C0257266723946204600F010F8FF206074D1
S315080012D0F1BD00000A210020007A70470172012042
S315080012E07047407C70474174084670470246C8B24A
S315080012F088420CBF012000205160704780B5FFF777
S3150800130018FEFFF76BFE012002BD2DE9F0478C4C55
S315080013108C4D4FF0160A00260AFB06F02F18B87AED
S3150800132000BBD4E90A0197F80880C4E90C01D7F88C
S3150800133001C07B7A3A7AF9793878E047387287F8C3
S315080013400780D4E90A01D4E90C23D4E91689801A5E
S315080013509941894504D82EBF8045C4E916016670AF
S31508001360C4E90E0100202071207904F1080101EB7F
S31508001370C002D2E90089B9F1000F08BFB8F1000F21
S3150800138062D001200021C4E91A01E17094F804C072
S3150800139004F1080000EBCC07D4E91A01D7E90023C9
S315080013A01040194008BF00283CD0D4E90A01E77864
S315080013B0C4E9100107EB8C17FFB2384600F04FF866
S315080013C0FF281DD01AFB07F02918D1F801C04B7A5F
S315080013D0285C1A461946E04794F804C004F1080048
S315080013E000EBCC00D0E90023D4E91A0122EA000078
S315080013F004F1080202EBCC0223EA0101C2E900016A
S31508001400D4E90A23D4E91001D4E91889101A63EB40
S315080014100101894504D82EBF8045C4E91801A77083
S31508001420C4E91201D4E91A01490041EAD071400021
S31508001430002904BF00280120C4E91A01E078401CED
S31508001440E070C0B24028A1DB2079401C2071C0B2F0
S31508001450042889DB761C102EBFF65DAF5CE730B535
S315080014600146FF200022374B162454431D5D8D424A
S3150800147008BF1046521C102AF6DBC0B230BD10B5A4
S31508001480314B9C6844F0010400229C6002E00C5D2C
S315080014901C70521C94B28442F9D3186880B210BDED
S315080014A02DE9F84F89461E464FEA9913244F07EB54
S315080014B0C30804461546D8E902AB01200021A9EB6A
S315080014C0831200F023FA4AEA00024BEA0103C8E94C
S315080014D002233C704846FFF7C2FF0146FF290AD09F
S315080014E01622184B0A98514319444874CD730E7442
S315080014F00B98C1F81200BDE8F18FD0B5104C4EF626
S315080015006022D4E90A01461C61F1FF37002300F086
S315080015100BFBC4E90A67002B08BF002A06D1D4E9E9
S315080015201401421C61F1FF33C4E91423D0BD0448F9
S31508001530D0E90A0170470248D0E914017047000053
S31508001540C00A0020C4130020003002402DE9F843E9
S31508001550054690460E469946404600F0C1FA18B927
S3150800156010490A78521C0A70099C089F28600021B5
S31508001570284600F0DEF80021284600F0E0F80021B1
S31508001580284600F0A9F90120C5F8108028756E755F
S3150800159085F81690AF61FF202C776877A877BDE8A5
S315080015A0F18300000B21002010B50446002100F04D
S315080015B0C0F80021204600F0C2F82046BDE81040D9
S315080015C0002189E170B504460D462168207A0E1877
S315080015D0204600F039F908B1207D38B128783070F6
S315080015E000F024F82046BDE87040C4E070BDF8B5A8
S315080015F004460D461646002709E02168227AE85D6A
S31508001600885400F013F8204600F0B5F87F1C3068BF
S31508001610874209D2204600F034F931688842ECD274
S31508001620207D0028E9D1F2BD0120F2BD2046217BAC
S31508001630491C51E1F8B504460D46164600270DE04B
S3150800164020682179425C05F8012B2046217B491E3A
S3150800165000F042F9204600F075F87F1C3068874292
S3150800166007D2204600F0E4F80028E9D037600020C9
S31508001670F2BD37600120F2BD2DE9F04105468846E6
S3150800168017461C4600F0FDF8287B874205D34FF61F
S31508001690FF7121600020BDE8F081002603E0007894
S315080016A008F8010B761C21688E4207D2F1192846E4
S315080016B000F081F80028F2D12660ECE726600120C8
S315080016C0E9E72DE9F04104468846164600F0D9F8C0
S315080016D0207B864203D34FF6FF70BDE8F0810027D2
S315080016E000E07F1CE168F8B2C9B2884209D2FDB2AF
S315080016F0A919204600F05FF800784045F1D1284640
S31508001700EBE74FF47040E8E700687047C068C0B27E
S315080017107047407D704741750120704741770846FC
S315080017207047407F70478177084670474068C0B267
S3150800173070474160084670478068C0B2704781604C
S315080017400846704738B5044600F072F808B100201C
S3150800175032BD00F094F800F0BCF82D1A022DB8BF7F
S31508001760002103DB00F0B6F8401CC1B22046FFF7A3
S31508001770E0FF012032BD38B5044600F065F80028C0
S31508001780204606D000F0AEF8A0B12046FFF7DAFFF3
S31508001790204600F0A4F800F06FF82D1A022D01DAA1
S315080017A0002103E000F069F8411CC9B22046FFF7A2
S315080017B0C6FF012032BD70B504460D4600F061F83B
S315080017C0204600F035F8F0B92046FFF79FFFA842FB
S315080017D019D3204600F055F80128204615DBFFF7F7
S315080017E095FF85420FD200F075F82D1800F047F8DE
S315080017F0EDB2854202DB00F042F82D1A2046FFF7CB
S3150800180083FFEDB212E0002070BD00F068F80646CE
S3150800181000F060F8301A401B2668012803DA00F049
S3150800182006FA304470BD00F055F83044284470BDBF
S3150800183038B50446FFF77AFF00F01EF8854201D155
S31508001840012032BD002032BD38B50446FFF774FFCB
S3150800185000F03FF82D1A00F012F8401E854207D016
S3150800186000F00BF800F035F82D1A15F1010F01D12B
S31508001870012032BD002032BD054620465CE72046E1
S315080018802DE070B50446FFF757FF064600F022F82C
S31508001890351A002D07DD2946204600F01DF8FFF70A
S315080018A0EEFF401B70BD0CD5FFF7E9FF064628463C
S315080018B000F0BDF90546711B204600F00DF82846D4
S315080018C070BD0021204600F007F82046BDE87040AC
S315080018D005E00546204629E7C160C8B27047006999
S315080018E0C0B27047007D70474AB1000011F8013B4D
S315080018F0521E00F8013B1CBF11F8013BF8E7704780
S315080019000146C88849884843000C7047D2B2203A35
S3150800191022BF00FA02F1002070475242D041D2F1AC
S31508001920200291404140D04090404140704710B558
S31508001930044610460A460146204600F08DF9204620
S3150800194010BD0146703100204A78012A02D10022D2
S3150800195002204A700B78012B03D1002240F0400088
S315080019600A7070472DE9F0410B460246186890FA4E
S31508001970A0F0B0FA80F70F254FF003086AE0090ACD
S3150800198091FAA1F1B1FA81FC506A4FEA8C06B1FAD4
S3150800199081F105FA06F68900B0438C400443546287
S315080019A057E00120B840014053D05C68166891FAA8
S315080019B0A1F0B0FA80FE4FEA4E0E08FA0EFE26EAAD
S315080019C00E0CB0FA80FE4FEA4E06B44044EA0C0408
S315080019D014605C68012C18BF022C11D19C689668AB
S315080019E0B0FA80FE4FEA4E0E08FA0EFE26EA0E0CF4
S315080019F0B0FA80FE4FEA4E06B44044EA0C049460FE
S31508001A00B0FA80FE1C69D6684FEA4E0E08FA0EFE3A
S31508001A1026EA0E0CB0FA80FE4FEA4E06B44044EAB7
S31508001A200C04D4605C68022C13D1B0FA80FC5C69A3
S31508001A30BCF1080FA3D2B0FA80FC116A4FEA8C06F3
S31508001A40B0FA80F005FA06F68000B14384400C43EC
S31508001A5014627F1C196831FA07F0A2D15868012868
S31508001A6018BF022805D15468D8688C4341432143DE
S31508001A7051600020BDE8F08110B502685208520096
S31508001A80026003688A68CC6823F4F853134343EA70
S31508001A90042303604A680261026842F00102026098
S31508001AA0836823F40043836082688C690B69D20AD1
S31508001AB01C4344EAC22282600A691AB1826842F467
S31508001AC00042826003680A6823F4401313430360E4
S31508001AD04368496923F400430B434360002010BD63
S31508001AE070B5C51DED08AFF30080ED00072D98BF52
S31508001AF008250C4E346814B12068A84208D200F0B4
S31508001B00E3F800283060F4D1AFF30080002070BD00
S31508001B106119451B14BF0D6000213160AFF30080C9
S31508001B20204670BD00210020D3BBD9B1B2F5803F55
S31508001B305BD2022A1ED98C46B1FBF2F102FB11C315
S31508001B401B0443EA1043B3FBF2FC02FB1C3380B2CE
S31508001B5040EA0343B3FBF2F002FB103240EA0C40C2
S31508001B6000237047022A05D98446B0FBF2F002FB2F
S31508001B7010C270474AB105D100F0010249085FEA70
S31508001B803000704700220023704700F0B3B80B00FE
S31508001B900200002100207047F7D300220023704777
S31508001BA0904271EB030CF2D370B5B1FA81F4B3FA33
S31508001BB083F52C1BA340C4F1200532FA05F63343FE
S31508001BC0A2405FF00046E64002E05B085FEA3202A8
S31508001BD0841A71EB030524BF204629467641F4D3BF
S31508001BE002000B003000002170BD70B5B1FA81F417
S31508001BF0B2FA82F5C4F120046419B4F12006DAD3E6
S31508001C00B2405FF00044F440002502E052085FEA63
S31508001C103303C61A71EB020E24BF3046714664417F
S31508001C206D41F3D302000B002000290070BD002887
S31508001C3048BF4042704700F58E71087850B90120B8
S31508001C400870002248684A70016841F02001016066
S31508001C50022070470120704762F30F2262F31F4289
S31508001C60401810F0030308D0C91A1FD3DB0748BF72
S31508001C7000F8012D28BF20F8022D130030B41446B1
S31508001C801546103928BF20E93C00FAD8490728BF6D
S31508001C9020E90C0048BF40F8042D890028BF20F829
S31508001CA0022D48BF00F8012D30BC7047C91818BF6F
S31508001CB000F8012DCB0728BF00F8012D704700EB6F
S31508001CC04100B0F9320070470749086808B100209A
S31508001CD070470648C008C00008600549C908C90019
S31508001CE0091A0160704700BF04210020172500204B
S31508001CF01035002070470068012180F822117047CE
S31508001D008268DFF80C160A4042F0080282607047C3
S31508001D1030B5012908BF00211FD0042908BF0121B9
S31508001D201BD0102908BF022117D0402908BF03215C
S31508001D3013D0B1F5807F08BF04210ED0B1F5806FAE
S31508001D4008BF052109D0B1F5805F08BF062104D078
S31508001D50B1F5803F0CBF072108210FF2E0630FF2AF
S31508001D60E8655C5C695C18300019DFF8A84503680B
S31508001D708C40A3438A401A43026030BD70B50129DE
S31508001D8008BF00211FD0042908BF01211BD0102934
S31508001D9008BF022117D0402908BF032113D0B1F587
S31508001DA0807F08BF04210ED0B1F5806F08BF0521DA
S31508001DB009D0B1F5805F08BF062104D0B1F5803F90
S31508001DC00CBF0721082100F02DF82C43146070BDC4
S31508001DD070B5012908BF00211FD0042908BF0121B9
S31508001DE01BD0102908BF022117D0402908BF03219C
S31508001DF013D0B1F5807F08BF04210ED0B1F5806FEE
S31508001E0008BF052109D0B1F5805F08BF062104D0B7
S31508001E10B1F5803F0CBF0721082100F003F8AC4359
S31508001E20146070BD0FF214620FF21C66535C183012
S31508001E30C21808251468705C85407047416370476E
S31508001E4081637047C163704701647047426822F036
S31508001E507002114341607047416C41F4004141648E
S31508001E6070476FF0010101617047006900F00100D9
S31508001E707047C16841F00101C160704781617047D0
S31508001E8081627047F8B5044604F15C050FF2A112A9
S31508001E90A86946680768002028606860A860A87472
S31508001EA0316ADFF8740401403162626040210FF242
S31508001EB0E900A06104222982EA7484F83A202046BF
S31508001EC000F0F0FB706800F070007028FAD1B9686D
S31508001ED0DFF83C04014041F00801B96004F16E03E3
S31508001EE0A86990F87B2000F052F8204600F026FCFE
S31508001EF00020A8740FF285116160E87484F83A002E
S31508001F00204600F0CFFBA86990F87B2004F16E0309
S31508001F1000F03DF8204600F011FC286869680009C1
S31508001F2028600909A86869600009A860DFF8EC1349
S31508001F300FF275006160A06101213046FFF748FF86
S31508001F4010213046FFF744FF4FF480713046FFF703
S31508001F503FFFA8897063A989B1630121A889F06345
S31508001F603046FFF70BFF10213046FFF707FF4FF407
S31508001F7080713046FFF702FF316A40F2555001433F
S31508001F803162042284F83A200020A875F1BD04F1D4
S31508001F903801304600F0FFBB00F13A0190F86F2097
S31508001FA00A70C98D491E27E0F8B500F13A02456F57
S31508001FB05188D38D35F8726F5C1AA7B2BE4204D227
S31508001FC004211170D28D511E13E097882404CF1B6B
S31508001FD0E40BBFB2BC4202D26A88891A09E07118BA
S31508001FE08CB29C4205D380235386D28DC1EB420125
S31508001FF0491EBDE8F44000BF89B270B504460D46D7
S31508002000606F4668618E3046FFF718FFA18E30462E
S31508002010FFF716FFE18E3046FFF714FF29463046D4
S31508002020FFF712FF706810F0700018BF012070BD2E
S315080020302DE9F041044604F16E060D46606F71788D
S3150800204000EB81014A6A1768CB6BD3F800804068B9
S315080020500021FFF7FBFE3178102909D2E06D216EC9
S315080020603F188844E765C4F860803078401C3070B3
S31508002070002129806980BDE8F081000070B500F173
S3150800208064050C462869E97A00EB81020021D36BC6
S315080020901E684068FFF7DAFEA87A102805D2296874
S315080020A0A87A7618401C2E60A87200202CE1830CB2
S315080020B010B503F03C039A4AD3189A4A1C686FF382
S315080020C00F142143196000F0010153680B43536054
S315080020D0012400F010001368934904FA00F0034045
S315080020E083420AD10868914AB0FBF2F00C214843B2
S315080020F0002818BF401EFBD110BD13681843106096
S3150800210008688A49B0FBF1F0C0EB0010002800E02F
S31508002110401EFDD110BD38B50446606F456894F879
S315080021204700002837D16022012100F044F8286AC8
S3150800213040F0010028620021286A20F00400286285
S315080021406963606F90F87A0001280AD1102200F0BE
S3150800215031F8286A20F010002862286A40F040000A
S315080021600BE002280AD1202200F024F8286A40F061
S3150800217010002862286A20F04000286270224FF476
S31508002180807100F018F8286A20F480702862286A9E
S3150800219020F4806028620FF239100FF2A5116060F2
S315080021A061610FF2E5106249E060A160012084F8E0
S315080021B0470031BD10212846AAE570B5044604F14A
S315080021C06805E868466894F8470001285FD13168D1
S315080021D0C806FCD53168CB06FCD4602201213046FE
S315080021E0FFF796FD306A40F0010000F051F803D180
S315080021F0306A40F0040004E0022803D1306A20F077
S315080022000400306228884008706360221021304636
S31508002210FFF77EFD306A40F0100000F039F803D170
S31508002220306A40F0400004E0022803D1306A20F00A
S315080022304000306228884008B06360224FF48071FD
S315080022403046FFF765FD306A40F4807000F020F8EC
S3150800225003D1306A40F4806004E0022803D1306A72
S3150800226020F48060306228884008F063E8680068D7
S31508002270C16821F48011C16028482E4960606161F7
S315080022802D482B49E060A160002084F8470070BD06
S315080022903062E86890F87A000128704710B502465F
S315080022A002F13A03506FDC8D40686143090C518690
S315080022B003211970538E43634068118F10F0700024
S315080022C018BF0120012902D100210120118710BD64
S315080022D070B5054605F160060C467269506800211E
S315080022E0FFF7B4FD706995F83A20316800EB820370
S315080022F0D86B0068081A1149884203DD47F6FF7152
S31508002300884200DB084600BF2080608070BD000060
S31508002310C0FFFF7F73000100AAFAFFFF75A7000838
S3150800232008740040007400403015002080841E00A8
S315080023303D27000843500008A52600080180FFFF36
S3150800234038B504460021606F4568696300F06EF889
S315080023502846FFF78AFD0028FAD000F067F82846D5
S31508002360FFF77AFD00F05CF80CD109888069FFF761
S3150800237085FD00F05DF8606FB0F87010006ABDE882
S3150800238034407DE531BD0000F8B5044604F13A074E
S31508002390606F45680668002038722968C806FCD44C
S315080023A02968C806FCD5012169632846F98D491FA5
S315080023B0FFF74AFD00F03AF82846FFF756FD0028D1
S315080023C0FAD000F033F8686C40F4806068642846F8
S315080023D0FFF742FD00F024F819D1098880692A6AB6
S315080023E040F255531A4208D0FFF748FD606FB0F81F
S315080023F06E10C069FFF742FD03E0FFF741FD00F0EC
S3150800240017F8606FB0F87010006AFFF739FD0320FF
S3150800241038703046FFF774FC2846BDE8F24028E5D8
S31508002420606F00F16C018A7B022A7047284618E51E
S31508002430606FB0F86E10C06922E500000000000069
S315080024400404043C3C0000000000080000000800EA
S31508002450080000002DE9F84F80460422D8F87400D9
S3150800246007688468C668D0F810A0D0F81490456844
S31508002470796821F0040179603A602022796821F0B0
S31508002480200179603A6080498D4204D17F490A6803
S3150800249042F001020A60DFF8F8B1A4B17630C179DA
S315080024A0012908D0226802F07002402A03D1018867
S315080024B05846FFF7FCFD226842F0010222602068B8
S315080024C040F0004020603EB1306840F001003060C6
S315080024D0316841F000413160BAF1000F0BD0DAF8EB
S315080024E0000040F00100CAF80000DAF8001041F0D8
S315080024F00041CAF80010B9F1000F1BD0D8F87400D3
S315080025007830017A012909D0D9F8002002F0700242
S31508002510402A03D101885846FFF7C9FDD9F80000BB
S3150800252040F00100C9F80000D9F8001041F0004158
S31508002530C9F80010B868C10741D4B868554900F011
S315080025404050B0F1805F15D0B868534A534B20F01D
S315080025504050B860B868084040F08050B8601068CD
S31508002560B0FBF3F3009302E00098401E0090009839
S315080025700028F9D1BA684A48024042F00042BA60D7
S31508002580B868C00FFCD13868C207B8685EBF084093
S3150800259040F00100B860F6D5084040F00800B86081
S315080025A0B868014041F02001B9604021F86840F45C
S315080025B00010F8603960786840F0400078604FF4A1
S315080025C07A7428684008400028602846696821F01F
S315080025D0700169600121FFF7D1FB10212846FFF73A
S315080025E0CDFB4FF480712846FFF7C8FB4FF48051A6
S315080025F02846FFF7C3FB686940F00100686108F1E7
S315080026004602D8F8740000F17B01887902280DD1BA
S31508002610C879012804BF0B78032B0CD1286303263D
S315080026206B6943F001036B612E6304E0107880B98F
S315080026300878012803D1508C401E686209E00328F7
S3150800264007D10120286303206A6942F001026A6102
S3150800265028636FF080022A61487820B908E06FF491
S3150800266080712961641E2869C10501D5002CF6D13F
S31508002670E86840F08000E86040F25550296A014356
S315080026802962BDE8F18F00BF002C01400C2004E050
S3150800269001001002C0FFFF7F30150020400D030027
S315080026A0C0FFFF3F70B5416F496800F14202002341
S315080026B0D48C137064084C63D38C5B088B63D38CFF
S315080026C05B08CB63D28C521F0A646FF001020A6161
S315080026D00B69DC07FCD50A614B6C43F480634B64D9
S315080026E04B6C43F400434B64436F03F16C04A57BC6
S315080026F0022D1DD124889B690D6A40F25556354234
S315080027000BD09C61436FB3F86E40DB699C61406FE8
S31508002710B0F87030006A83610AE09C62436FB3F8D0
S315080027206E40DB699C62406FB0F87030006A836265
S315080027300A61C86840F00100C86070BD10B5416FF5
S315080027404968CA6852085200CA60002380F84230B5
S315080027504A6C22F400424A6490F87220012A12D088
S31508002760426F02F16C039C7B022C0CD192691B8888
S315080027709362426FB2F86E30D2699362406FB0F8D6
S315080027807020006A82626FF0010008610A69D30747
S31508002790FCD5086110BDF0B50468521C04F060044D
S315080027A0602C1CBF1204520C6FF00204520504611F
S315080027B000251E78102E0DD20669B707F9D56D1CAF
S315080027C0AEB2B6EB124F0461F3DB1F78102FF0D2CE
S315080027D001200880F0BD0068012180F823117047A8
S315080027E0010008D4012200F01F01DFF8A4378A404F
S315080027F0400943F8202070470901020003D4DFF896
S31508002800940781547047DFF8903702F00F021A4494
S3150800281002F8041C704730B500F007000123C0F128
S315080028200704052C2EBF0F2403FA04F4641E051DA5
S31508002830072D34BF0020C01E2140814003FA00F056
S31508002840401E1040084330BD10B501F01F01C1F10C
S315080028501A01C36C4FF0F844CC4002F0F842A34387
S31508002860CA401A43C26410BDCB0D10B5143003F02C
S3150800287004031818090D01F01F01036807248C408A
S31508002880A34302FA01F11943016010BD70B502F0C5
S315080028901802DFF80857D0F8B06025FA02F305EAFF
S315080028A001041940A64329403143C0F8B01070BD51
S315080028B0DFF8EC1601E0DFF8EC1681B00A6802438F
S315080028C00A60096808400090009801B0704770B522
S315080028D0012908BF00211FD0042908BF01211BD0E8
S315080028E0102908BF022117D0402908BF032113D099
S315080028F0B1F5807F08BF04210ED0B1F5806F08BFFF
S31508002900052109D0B1F5805F08BF062104D0B1F5CD
S31508002910803F0CBF0721082100F035F8042514680C
S31508002920705C8540AC43146070BD70B5012908BF62
S3150800293000211FD0042908BF01211BD0102908BF78
S31508002940022117D0402908BF032113D0B1F5807F93
S3150800295008BF04210ED0B1F5806F08BF052109D044
S31508002960B1F5805F08BF062104D0B1F5803F0CBFE2
S315080029700721082100F007F808251468705C8540CF
S315080029802C43146070BD0FF294620FF29C66535C80
S315080029901830C2187047F8B59EB040F2FF31DFF81C
S315080029A00806DFF80846DFF8086600F025FB0BF096
S315080029B08CFF00F03FFB00F09EFA00F099FA00F059
S315080029C094FA0C22002105A8FEF7B1FF182200216F
S315080029D00EA8FEF7ACFF042200F07DFA10220021B3
S315080029E001A8FEF7A4FF1822002108A8FEF79FFFFA
S315080029F04FF08050FFF75CFF00F07AFA00F075FAA6
S31508002A00432000F055FA00F06CFA012000F050FA65
S31508002A1000F047FA0020202105900691079005A9A5
S31508002A204FF0A04000F028FB00210E9110910022E3
S31508002A30012112910F92119213920EA94FF0A04004
S31508002A4000F02DFB4FF0A0454FF48031686820F068
S31508002A5004006860686820F00800686000916946AC
S31508002A60DFF8500500F0F8FA402101910222002112
S31508002A7003910491029200F0FEF900F006FA08218B
S31508002A8000F0FDF900F0EEF900F0E8F9E86C00F066
S31508002A90EDF9E868DFF8206500F0F8F94FF487717A
S31508002AA000F0EDF900F0DEF900F0D8F9E86CDFF88F
S31508002AB00C6500F0DBF900F0E8F94FF4057100F059
S31508002AC0DEF900F0CFF900F0C9F9E86C20F0C00093
S31508002AD040F04000E8640522286B20F4F86040F4D2
S31508002AE0307028634FF0A040DFF8D4542946FFF72A
S31508002AF0BBFE7F2229464FF0A040FFF7C7FE1022F3
S31508002B0000F0E9F91822002104A8FEF710FF4FF09B
S31508002B100050FFF7D0FE00F0EBF9102003210490D7
S31508002B2005910022089204A900F0DBF9382000215B
S31508002B3002220090019103926A46DFF88854DFF872
S31508002B408814284600F0F8FA286840F0040028603F
S31508002B50142200210FA8FEF7EAFE2022002106A86B
S31508002B60FEF7E5FE2822002114A8FEF7E0FE00F095
S31508002B70B1F9DFF85804016841F4006101600068A2
S31508002B8000F400600E900E9800F0B2F9022101914F
S31508002B900022029203920C21012205914FF400654E
S31508002BA00492009500F09CF9202110910020012143
S31508002BB0ADF83C004FF448628DF84C1011924FF472
S31508002BC08076DFF80C7412960FA9384600F0DEFA04
S31508002BD0386820F080003860012100F03DF9602156
S31508002BE0002206910792089209920A920B920C9279
S31508002BF00D92012100F02CF9012100F027F910218E
S31508002C0000F02AF900210791089106AA102100F080
S31508002C1020F9102100F01AF9314600F01DF90021BB
S31508002C200791089106AA314600F013F9314600F0DB
S31508002C300DF94FF4805100F00FF90022079208921F
S31508002C40702140F67F42069109924FF4805100F0B8
S31508002C50FFF84FF4805100F0F9F8B86820F07000DA
S31508002C6040F01000B8600022B968DA48014041F027
S31508002C700601B9604FF48061F86820F04000F860FA
S31508002C80F86820F48040F860786840F07000786052
S31508002C90786820F470007860B86820F08000B86022
S31508002CA01591149530218DF85C101696ADF85E20B6
S31508002CB04FF40051189119921A921B921C921D9268
S31508002CC014A9384600F0E8FB00F00FF900F010F9F7
S31508002CD04FF4C04100F0F3F800F0E1F84FF400417A
S31508002CE000910222019203210291002203920221FD
S31508002CF00491042200F0D3F84FF4E06100F0DFF805
S31508002D0000F0EDF81C22002106A8FEF710FE00F0E0
S31508002D10E1F84FF40030FFF7CEFD00F0E9F80C219A
S31508002D200091022201920021029103910491072247
S31508002D3000F0D5F84FF4E13000210690079108918C
S31508002D4009910C220B910C910A9206A9A24CA34D4B
S31508002D50204600F0E3FBA06820F48060A06060686D
S31508002D6020F490406060A06820F02A00A0602168E6
S31508002D7041F00101216000F02BFCFEF7D8FB40F67C
S31508002D80C4120023964C80185941C4E90001D5F8AD
S31508002D901001FEF7B5FD3228F9DBFEF7C8FBD4E9CA
S31508002DA000238B42F9D828BF8242F6D24020FFF78B
S31508002DB07FFD8C488C4C0168754D21F060010160DF
S31508002DC041F22101026822F080020260C1604FF6DA
S31508002DD0FF71026822F0180242F008020260816060
S31508002DE0012220680421C0F30220FFF714FD0146E2
S31508002DF01820FFF701FD1820FFF7F2FC20680022D3
S31508002E0000F052F801461920FFF7F6FC1920FFF7E3
S31508002E10E7FC206800220221C0F30220FFF7FBFC32
S31508002E2001461220FFF7E8FC4FF4802028600022B4
S31508002E30206800F039F801462520FFF7DDFC202040
S31508002E406860FEF75BFAFEF760FAFEE738463EE58D
S31508002E5006AA384600F0CDB9384666E57F223146DF
S31508002E60284613E5052231462846FDE420F0C00031
S31508002E7040F04000E86401A9284600F03DB96868BA
S31508002E8020F0400068602846DEE4E86840F4001058
S31508002E90E8603246686820F020006860704705924E
S31508002EA069462046FEF75EBD0021C0F30220B2E463
S31508002EB003210890099100220C9208A970470091F5
S31508002EC00222019203210291002203920221049117
S31508002ED006227047182200216846FEF728BD05928B
S31508002EE069464FF09040FEF73DBD4FF48020DFE481
S31508002EF04FF40030DCE410B53C483D4C0168C90885
S31508002F00C90041F0020101600068216841F0010131
S31508002F10216020688007FCD5216821F0F80141F07E
S31508002F2080012160606820F4741040F460106060CD
S31508002F30E06A00090001E062216841F080712160C1
S31508002F4020688001FCD5616821F0F0016160606845
S31508002F5020F4E06040F480606060606820F46050AF
S31508002F60606060688008800040F002006060606809
S31508002F7000F00C000828FAD11E4800F047FB042090
S31508002F8000F04AFB206B20F48070206310BD00001F
S31508002F9000E100E000E400E018ED00E0FEFF0700B5
S31508002FA0141002401C100240401D00200004004876
S31508002FB00200300400030050040060080004002AE0
S31508002FC00008302E0074004001001002181002405C
S31508002FD0002C0140F8FFFEFF00440040AC0B002027
S31508002FE0E0200020083002400CED00E000200240FE
S31508002FF0001002400090D00381B04A08009207E012
S31508003000009A821AFF2302F8013D009B5B1C00937D
S31508003010009A8A42F4D301B070470000000000000D
S315080030200404043C3C0000000000080000000800FE
S315080030300800000080B50748016841F010010160EA
S31508003040032000F016FB042000F0E6FA00F05CFB13
S31508003050002002BD0020024010B5244B1B68024622
S315080030600020DC0706D49368096823F440330B4331
S31508003070936010BD012010BD70B50246002093680C
S31508003080DB070AD4D6681A4D0C684B6889682E4047
S3150800309026431E430E43D66070BD012070BDF0B5B1
S315080030A083680022DC071DD44C690D69CE680F6859
S315080030B04B68DFF840C033B1C3680CEA03031F430B
S315080030C08B681F4303E0C3680CEA03031F433E43B0
S315080030D035432C43C460036B49681B0941EA031353
S315080030E0036300E001221046F0BD0000080000500E
S315080030F0C7BFFFFF3CC0F0FF30B582680023D20788
S3150800310017D4CC684A6832B1C5688A6825F0047550
S3150800311015432C4303E0C26822F004721443C460CA
S31508003120C26C4C680968120A0C4344EA0222C2645B
S3150800313000E00123184630BDF0B501F01001012466
S3150800314005688C4000232540A54208BF01231BD0F3
S31508003150D5685468166874B134430768926840F6AF
S31508003160FA7C14430CFA01FC254327EA0C0705FAF6
S3150800317001F1394307E00468FA278F403543BC4319
S3150800318005FA01F1214301601846F0BDF0B5DFF8F4
S315080031906C73036800F07CF9B84218BFB0F1804F31
S315080031A001BF23F070034A681343B84208D0B0F150
S315080031B0804F18BFB04203D0A84218BFA04203D11F
S315080031C0CA6823F4407313430360B8428A68C2622C
S315080031D018BFB0420A88826203D0A84218BFA0422C
S315080031E001D1097C0163416941F001014161002077
S315080031F0F0BD2DE9F041034601200129DFF80CC393
S31508003200DFF80C7300F044F9DFF8F08212D01029C9
S3150800321048D0B1F5807F00F07F80B1F5805F00F07F
S31508003220B580B1F5803F00F0DD80B1F5801F00F074
S3150800323004812BE1186A400840001862D3F820E0A0
S315080032405F68996910680CEA010140EA010C116986
S315080032502EF00200084341085068434518BFB342A0
S3150800326040EA410E03D0AB4218BFA34212D15069BF
S315080032702EF0080141EA800020F00401906841EA36
S31508003280800E9069D16927F48077074327F4007781
S3150800329047EA41075F60C3F818C0D0685863C3F8A7
S315080032A020E0F2E0186A20F0100018624345186A18
S315080032B05968D3F818C007EA0C0ED2F810C0176878
S315080032C020F0200040EA0C10D2F804C020F01000CC
S315080032D018BFB3424EEA072740EA0C1003D0AB42A8
S315080032E018BFA34213D1546920F0800040EA841025
S315080032F0946820F0400040EA8410946921F48061C3
S3150800330041EA8401D46921F4006141EAC4015960A3
S315080033109F61D168996363E0186A20F48070186227
S315080033204345196AD3F804E0DF6910680CEA070711
S3150800333040EA070C1769506821F4007141EA072131
S3150800334021F4807118BFB34241EA002103D0AB4291
S3150800335018BFA34213D1506921F4006141EA8021C4
S31508003360906821F4806141EA802190692EF48054A6
S3150800337044EA001020F40054D06944EA401EC3F819
S3150800338004E0C3F81CC0D068D8637DE0186A20F44E
S31508003390805018624345186A5968D3F81CC007EA72
S315080033A00C0ED2F810C0176820F4005040EA0C3012
S315080033B0D2F804C020F4805018BFB3424EEA07275B
S315080033C040EA0C3003D0AB4218BFA34204D194693B
S315080033D021F4804141EA84115960DF61D16819649A
S315080033E0186252E0186A4B4920F4803018621F6A46
S315080033F0586D0140106840EA010E116927F4003043
S3150800340040EA014020F480315068434518BFB34272
S3150800341041EA004703D0AB4218BFA34206D1586819
S31508003420916920F4803040EA01205860C3F854E0DE
S31508003430D068996D98651F6227E0186A20F4801095
S315080034401862196A5F6D34483840176840EA0727DA
S31508003450106921F4001141EA00515068434521F4EE
S31508003460801118BFB34241EA005103D0AB4218BFDE
S31508003470A34206D15868946920F4802040EA842043
S3150800348058605F65D068D86519620020BDE8F0818C
S315080034901D4C1C4D1A4E704730B50C7B8A684B681C
S315080034A04D6A144324F480641C430A68CB8924F4C7
S315080034B00064144324F480541C430A690F4B24F413
S315080034C00054144324F480442C4324F400442C432D
S315080034D098420FD14A690B6A24F47024144324F4E1
S315080034E070041C438A69C96924F08074144324F063
S315080034F000740C434464002030BD0000002C0140D9
S315080035000040014000440140004801408CFFFEFF96
S31508003510FF8CFFFE8FFFFEFFFF8FFFFE7FB5044681
S315080035200E4620680125C10745D4226827487168D8
S315080035300240F0680A4331690243B0690A4302430C
S3150800354022606168B06821F4405101436160A16856
S31508003550706921F440710143A16019498C4203D175
S31508003560002000F0FBF809E016498C421CBF1648FB
S31508003570844220D1684600F0E1F8029800281CBF72
S315080035803168002917D0B36900254A08B3F5004FFA
S315080035900CD102EB4002B2FBF1F080B24FF6F071AB
S315080035A00140C0F342000143E16004E01018B0FB9B
S315080035B0F1F080B2E060284604B070BD000000005B
S315080035C0003801400044004000480040F369FFEF1E
S315080035D01CB500F085F94FF4FA61B0FBF1F000F084
S315080035E072F8084C211D204600F098F900F096FA6A
S315080035F005480090231D2246012104F1080000F029
S31508003600CDFA13BD2C130020C4AC0008014908608C
S31508003610704700003015002038B50D4D0D4B2A783F
S3150800362004464FF47A711868B1FBF2F2B0FBF2F077
S3150800363000F049F850B9102C08D2002221464FF064
S31508003640FF3000F023F8AC60002032BD012032BD07
S3150800365024150020301500200901020002D4244850
S3150800366081547047234B02F00F021A4402F8041CD7
S315080036707047214B19684FF6FF020002114000F40B
S31508003680E06008431D4908431860704770B51A4B37
S315080036901C68C4F302230124C3F10705052D2EBFB8
S315080036A00F2504FA05F56D1E1E1D072E34BF0023CF
S315080036B0DB1E2940994004FA03F3BDE870405B1EFF
S315080036C01A401143C8E710B5401EB0F1807F01D3F8
S315080036D0012010BD0A4C60600F214FF0FF30FFF744
S315080036E0BBFF0021A16007202060002010BD00005C
S315080036F000E400E018ED00E00CED00E00000FA053B
S3150800370010E000E0FDF7F9BE0B4882B0016841F011
S3150800371001010160026802F0010200920099426804
S3150800372042F080524260406800F080500090009855
S31508003730042002B0FFF79DBF1810024010B50446DA
S3150800374000F031F8206000F038F8606000F03BF8CF
S31508003750A060606800F03FF8E06010BD80B5002109
S31508003760F8B92A48026B02F00302012A04D011D3E1
S31508003770032A04D008D30DE000F015F810E000681D
S3150800378080070ED522490CE0006A800709D54FF458
S31508003790004106E000F007F800F00FF800F013F813
S315080037A00146084602BD1B48006800F00C000828C0
S315080037B008BF00F016B8164870471649164A096831
S315080037C0C1F3031104E01349144A0968C1F302213D
S315080037D0515CC84070470F49104A0968C1F3C221B5
S315080037E0F6E70C480168826A036801F48031B1F58E
S315080037F0803F0CBF06490A4902F00F02521CB1FB72
S31508003800F2F0C3F38341891C484370470010024015
S3150800381000127A000410024048AC000874AD000893
S3150800382000093D0038B5DFF8C040206840F00100C7
S31508003830206000F01DFA05462068810706D400F0CE
S3150800384017FA401B0328F7D3032032BD2068DFF898
S315080038509C1020F0F80040F0800020606068084066
S31508003860606000F005FA0546606810F00C0F07D096
S3150800387000F0FEF9401B41F289318842F4D3E3E7B0
S31508003880DFF86C20DFF86C00DFF86C101060086851
S31508003890FFF7C2FE08B1012032BD2168DFF85C00DF
S315080038A001402160226822F48022226000F0E0F9BB
S315080038B005462068810105D500F0DAF9401B032882
S315080038C0F7D3C1E700206060E0622063A168DFF8F3
S315080038D0302041F41F01A160A0600121116032BDB2
S315080038E00348006870470000001002400CC0FFF84B
S315080038F03015002000127A002C150020FFFFF6FE76
S31508003900E004424281B041F48032C261C161C261C1
S31508003910C0690090009901B0704700002DE9F14F89
S31508003920664D82B08A46281D00F0A8F96448DFF87B
S3150800393094B1654FDFF89481DFF89491654C664E33
S31508003940A8630021654829702863FEF783FD64484B
S315080039500188ABF81A10C2896249CA80038A0B81AA
S31508003960B0F908200A82B0F90A304B82B0F90C0087
S31508003970888200F08BF900F0B9F9384600F0DAFAD7
S31508003980EF615948594FA861384600F0DDFAE969F0
S31508003990A8693A4600F012FB404600F022FB286B65
S315080039A0A969534B00904246484600F01CFB204646
S315080039B000F0C0FA304600F0BDFA2C626E624D483F
S315080039C04D4C4E4EA86200F034FB4D48A96A686318
S315080039D000F5867041600460304600F037FBEE6201
S315080039E004F114064748E86300F043FB002000F0A2
S315080039F05BFB01203074A86900F096FB2061A8697A
S31508003A0000F092FB009005F14C01BDF802003080F1
S31508003A1069612346AA69291D05F14C0000F08FFB50
S31508003A20A86900F096FB01466869002200F094FB3D
S31508003A30029968690860EA6933480260296A416040
S31508003A4000216A6A8260C1602A6BC1610261C0F89E
S31508003A5014908761C0F820802A1DA9694162826294
S31508003A60E96A2A4C2A4FC1620022A96A42630023E6
S31508003A70016383636A6BC263036443648364C364D8
S31508003A800365CAF80000234A234800F06CFB0C21A2
S31508003A90281D00F081FB204600F04CFA384600F05D
S31508003AA049FAA969584600F010FC2C6401206F6495
S31508003AB0C5F848B02870BDE8F78F00BFB4120020DB
S31508003AC0C410002090130020940F00200C0F002033
S31508003AD0940E0020C00F0020EC0F0020E80D0020F7
S31508003AE04EF00008AC130020600E0020C00C002029
S31508003AF0301000206C0F0020741F0020440F002097
S31508003B00AC0B0020181000207C1D00203813002064
S31508003B1064130020BC2000204410002010B54FF488
S31508003B2080714FF09040FFF7EDFE4FF400714FF0B3
S31508003B309040FFF7E7FE4FF400614FF09040FFF723
S31508003B40E1FE154C4FF480412046FFF7DBFE4FF4AB
S31508003B5080614FF09040FFF7D5FE4FF400412046B4
S31508003B60FFF7D0FE4FF400512046FFF7CBFE0221A7
S31508003B704FF09040FFF7C6FE01214FF09040FFF747
S31508003B80C1FE40214FF09040FFF7BCFE2046BDE83D
S31508003B9010400121FFF7B6BE000400482DE9FF4793
S31508003BA0204E214FDFF884A004460D4690469946DC
S31508003BB03760384651463022FDF796FE00944B464C
S31508003BC042462946384600F068FC3068184F00F02F
S31508003BD06EFC30682F22002100F073FC3068242226
S31508003BE0012100F06EFC1348706051463022FDF743
S31508003BF07BFE384600F072FC0C980F4A0F4B029079
S31508003C00316801910092394670680D4A00F068FCE7
S31508003C1000944B4670684246294600F03EFCBDE8D3
S31508003C20FF8700BFF02000208810002058100020D1
S31508003C3078110020C41A00209DAD0008371C000822
S31508003C4049A500080949088810B10A88501E088045
S31508003C504A88022A02D34888421E4A80888802284F
S31508003C6002D38888421E8A80704700BF3415002018
S31508003C7001484068704700BF2415002000210170E4
S31508003C8041808180704700000100020015481649EE
S31508003C9081B00268D20711D4036843F001030360B8
S31508003CA0026802F001020092009A0B6943F00103D0
S31508003CB00B61016849084900016011E008680A6853
S31508003CC022F0700242F020020A6000F070000A69D1
S31508003CD042F001020A610B6823F07003184308607A
S31508003CE001B070471C100240040000402DE9F84F4F
S31508003CF0814C824DDFF80882DFF808922DED028BA1
S31508003D00208885F84D02687005F5DF76E0883081F1
S31508003D1005F5FC7700B2404270814FF00A0A608CC4
S31508003D20307305F53A70B4F9141001836FF03B0B44
S31508003D30B4F916204283B4F91810A5F82C1305F522
S31508003D404B71B4F91A204A80B4F91C10A8F834103B
S31508003D50B4F91E20A8F83620218C01800A4609B23B
S31508003D609303524292034942C8F84030C8F84420A7
S31508003D70418005F5F673208F708405F5F470618F20
S31508003D80B184A28F0360F284E38F8380B9F8003090
S31508003D90C380B9F802C0A0F808C0C7600027078228
S31508003DA04182828205F501718161878305F5047177
S31508003DB0C383A0F820C041620785B9F9061041857A
S31508003DC0B9F908208285076340F2AA20A8843C270F
S31508003DD061890AFB01F191FBF7F0308091FBFBFB4F
S31508003DE0A6F806B000F09EFB4FF06632464B00F090
S31508003DF0ABFB00F07BFC05F5187705F58D7B388065
S31508003E00A882ABF800003C21A0890AFB00F36FF0FA
S31508003E103B0293FBF1F093FBF2F27080B28078805C
S31508003E20E88205F54B72668AD662B9F80A007043CD
S31508003E3000F07AFC0022354B00F084FC00F056FCBA
S31508003E4033497884B1FBF6F18AB24DF6B450424351
S31508003E50FE80920B6E83ABF83E2005F5BC700180A0
S31508003E600904490C0183A08CC0EB004000F05AFB02
S31508003E70284A294B00F066FC00F038FCA8F8260012
S31508003E8040F20B21E08CC0EB004090FBF1F1A8F862
S31508003E902810208D323800F045FB204A204B00F0D0
S31508003EA053FB02460B464FF033301E4900F06EFDB9
S31508003EB000221D4B00F048FB41EC180B00F016FCE5
S31508003EC0F88753EC182B1948194900F0D1FD00F072
S31508003ED00DFCA8F80000B4F90E00A886B4F9101075
S31508003EE0E986B9F832006884B9F83410E984BDEC7B
S31508003EF0028BBDE8F18F00BF00F00008C00C00205F
S31508003F00600F002040F000086666F23F00408F40D0
S31508003F100090D003E7799EE7795E80409CC420B084
S31508003F207268913F33330940C064D340C3F5285CB7
S31508003F300F60AAC0018842888180C2800022018C55
S31508003F40418482608262704710B504461948002190
S31508003F508181817304F1F60094F81611017001222B
S31508003F6082730121B4F92E20134890FBF2F000B2B7
S31508003F70002205E000EBD070C00300144900521C73
S31508003F800028F7D121866286B4F92E00B4F93010DC
S31508003F9010FB01F142F6BE0291FBF2F26285204661
S31508003FA000F023FE04F13400FFF7C4FF002060820E
S31508003FB010BD00BF942000205EEA0F000161426137
S31508003FC000F12A010A7802700022B1F902301B04B6
S31508003FD04360B1F90410428009048160C2608261BD
S31508003FE0704700F02CBEF0B5059F044604F148055D
S31508003FF000266A6204F10C0000222962AB62EF62B5
S315080040002E736A7301E08068761C10B1F1B2052937
S31508004010F9D3F2B20C204243A018002181602E7019
S31508004020642123884B434FF47A70B3FBF0F0A873EE
S31508004030F0BD10B5044604F10C0000F015FE84F836
S3150800404026002046BDE8104000F0EEBE10B5044636
S31508004050207848B9201D00F007FE84F8260020467F
S31508004060BDE8104000F0F6BE618A21820020E08299
S3150800407010BD002181604160C1600161012141617B
S315080040807047C3688268012B03D901698A185B1EC9
S3150800409004E004D1426841694A430023C360826050
S315080040A0406992FBF0F070471FB5044604220021D0
S315080040B002A8FDF73CFC042200216846FDF737FC00
S315080040C00422002101A8FDF732FC26211448029A91
S315080040D011FB04F10844026001994160009AC2602C
S315080040E0002200990161C2830099C0F816100021C8
S315080040F0019AC0F81A2001840A4800EB8404206A51
S3150800410000F0ACFE606A002100F0A8FEA06900F08D
S31508004110A7FE206B00F0ACFE00F00BFF1FBD00BF32
S31508004120741F0020B412002081B0B0F92E10ADF82B
S315080041300010008EADF80200009801B070470160CB
S315080041404260002183600173C1810182C1820176C8
S315080041507047B0F92C00704701230373C181C282EE
S31508004160037643767047016042600221017200229D
S315080041704281038AC1894B434FF47A72B3FBF2F149
S31508004180491E4FF6FF72914288BF114601D801B900
S315080041900121818170470E0010B502780024142A87
S315080041A00ED8DFE802F0181E4E2A414C4E505255E2
S315080041B00D0D0B24262834363E453C000A004BD00C
S315080041C003291CBF0129072903D00022802100F0FA
S315080041D0BFFE204610BD0A46032A3DD0012A39D122
S315080041E03AE0072918BF0D2936D00E292EE00E29E8
S315080041F018E00F2916E0022914E0072918BF10292C
S315080042002AD0042918BF112926D001291EE0112910
S3150800421008E0122918BF07291ED0142916E012290A
S3150800422000E004290DD117E00A46132A03D113E04A
S315080042300A46042A10D0072A0ED0052A06E00629BF
S315080042400AD0072902E0082900E00929B8D103E0C5
S315080042500A0001D00C2AB3D101240170B9E7000085
S31508004260F8B5044616460D46304600F089FE074660
S31508004270218B70880904B1FBF0F03F1A00F082FE2A
S3150800428004463946284600F083FE10FB04F0F2BDCA
S3150800429038B50D460446B2F90E10B2F90C0011FBFA
S315080042A001F110FB001000F0ABFEA168411A284688
S315080042B000F06EFEB4F90C20A1684A431212801A67
S315080042C00028C8BF0020226132BD10B504464869DF
S315080042D000F0B4FE4449A08000F08CF812FB00F20E
S315080042E04243121213FB00204118616110BD000001
S315080042F0F8B5044658690D46164600F09FFE3B4F32
S31508004300A0800100397844BF404200B202290ADB86
S31508004310354900F06FF842434243121210FB03225C
S31508004320511861610021491C39702178069B079A4A
S31508004330052958D8DFE801F0030B1723304E41282A
S31508004340ACBF0120032020700020387021E061698D
S31508004350A7688F42A6BF0227277007F10A014128DE
S31508004360A16016DA03E06169A160412811DA032029
S3150800437020706FF004010527F182B78209E0A16871
S315080043800A2904DC60800A210420207000E00A392A
S31508004390A16000F036F8F1BDB4F902E0B3214FF0A0
S315080043A04D0C1EFB01F11CFB0010803000126080D2
S315080043B000F027F8B4F90200142814DA00217980ED
S315080043C00B4D2846FEF7BAF9284600F03AFE0520B6
S315080043D02070F1BD788841F289329042A4BF00234B
S315080043E02370401C7880F1BD50F00008FC200020A6
S315080043F0E80D0020B1F90020B1F90230B1F9041036
S3150800440070470092294632462046FFE770B51E4699
S31508004410044696F82400154648B9049A00F034F87C
S315080044203082324629462046FFF732FF708270BD39
S315080044302DE9F041069F0446884616461D4600F0BB
S31508004440A1FD01280BD100F021F8022907DB00F0B5
S3150800445019F8F082B6F916008003306110E000F012
S3150800446091FD10F1010F0BD100F010F811F1010FB9
S3150800447006DA00F007F8B082B6F914008003F06097
S31508004480BDE8F0813A4641462046E9E66869B0F952
S315080044900C10B5F90200091A704710B5029C01778D
S315080044A0846200210262436280F82C1010BD4169C3
S315080044B0002918BF084770478169002918BF0847AF
S315080044C070474368002B18BF1847704780B5836844
S315080044D089220BB198470246104602BD00F0DBBDA3
S315080044E0F8B50446084615461E46069F0799089AD3
S315080044F0206304F1C00359601A600749074B084A4C
S315080045000091214600F0D9FD6563A663E76320465E
S31508004510BDE8F24000F0DBBDA5AD00082179000832
S31508004520A9AD0008C11768B14840401AB0FA80F230
S315080045309040D21CC907C2F5846241EA025202EBD6
S31508004540D021400570470000B0B581EA030C0CF095
S31508004550004C40F2FF7515EA11541DBF15EA1357B2
S31508004560AC42AF4239E0E41923EA455343F48013D9
S31508004570C90241F0004141EA505EC7021100A7FB9B
S31508004580020200284FF00000EEFB01204FF0000168
S31508004590E3FB072118BF42F00102401800214941F8
S315080045A0E3FB0E01A4F580640F0302D252004041DA
S315080045B0494154F101046CDD470872F1004250F19B
S315080045C0000051EB0451A1F580115CBF41EA0C01D2
S315080045D0B0BD4CEA05510020B0BD05EA1357AC4200
S315080045E014BFAF4241E050EA410E1CBF52EA430EE7
S315080045F002E061460020B0BD24423C441BD15FEA7C
S31508004600070EF6D0090302BF01460020AEF1140ECC
S31508004610B1FA81F7AEEB070401FA07FE0C37C7F1CA
S31508004620200100FA07F7C8404EEA000E23EA455370
S3150800463043F48013A2E733F00043B3FA83F704BFC9
S31508004640B2FA82FE77440B3FE41BB7F1200E2FBF68
S3150800465002FA0EF3BB40C7F1200E22FA0EFE38BF4F
S3150800466043EA0E03BA40641C82E750EA410E14BFBF
S3150800467052EA430E6FF000014FF4001717EB430F91
S315080046808ABF194617EB410FB5E74CEA05510020DA
S31508004690B0BDD4F10104B4F120070FDAC4F1200744
S315080046A0520828BF42F0010210FA07F501FA07F787
S315080046B0E1BF2A43E0403843E1400FE0352C98DC5F
S315080046C0C7F1200452EA400220FA07F218BF42F066
S315080046D0010231FA07F0A1400A43002172F10042B3
S315080046E050F1000051EB0C01B0BD0000C1F30A53B4
S315080046F040F2FE329B1A14DDD3F120034FEAE17231
S3150800470008DDC90241EA505141F00040D8408018FE
S315080047105040704703F2E13010B1D24382F00040B6
S315080047207047002070470000014648B1B0FA80F192
S315080047308840C91CC1F58461090501EBD0214005F3
S3150800474070470000F0B540F2FF7581EA030C0CF0E3
S31508004750004C15EA11541DBF15EA1357AC42AF4277
S31508004760E5E0BC41C1F31301C3F31303801A994171
S3150800477043F4801304D2641E40004941801859410D
S31508004780C90241EA5051B1FBF3F603FB1611A2FB2D
S315080047900675D7EBC020A94102D2761E801859416A
S315080047A0C90241EA5051B1FBF3FE03FB1E11A2FBFD
S315080047B00E75D7EBC020A94103D2AEF1010E8018C1
S315080047C05941890241EA9051760546EA8E2EB1FB97
S315080047D0F3F603FB1611A2FB0675D7EB8020A94159
S315080047E002D2761E80185941C90241EA50514EEA52
S315080047F0060EB1FBF3F603FB1611A2FB0675D7EB03
S31508004800C020A94102D2761E80185941C90241EA40
S315080048105051B1FBF3F703FB1711A2FB0735D3EB96
S31508004820C020A94167F100070CBF004247F0010705
S3150800483066F3D5274FEA1E31B80814F5806412DDF1
S31508004840BD0775F1004250EB0E5051EB045111F5BE
S31508004850801F5CBF41EA0C01F0BD4CF07F6141F05E
S31508004860E0410020F0BDBD076D0840EA0E5041F456
S315080048708011D4F10104B4F120060ADAC4F1200645
S315080048800200E04001FA06F3E1401843B24015433E
S315080048900EE0342C13DCC6F1200445EA40056D0809
S315080048A020FA06F2154321FA06F0A1400D4300212D
S315080048B075F1004250F1000051EB0C01F0BD0020EB
S315080048C05FEA0C01F0BDCFB992185B41B3FA83F7E2
S315080048D004BFB2FA82F6BF190B3FB7F120062FBF05
S315080048E002FA06F3BB40C7F1200622FA06F638BFDD
S315080048F03343BA401CB1E419641E33E77F4231F0F2
S315080049000041B1FA81F404BFB0FA80F6A4190B3C51
S31508004910B4F120062FBF00FA06F1A140C4F1200623
S3150800492020FA06F638BF3143A0403C1B1AE7AC42D2
S315080049301ABF05EA1357AF4212E050EA41061CBFF8
S3150800494052EA4306BFE750EA4107304661461CBFB4
S3150800495041EA0551F0BD52EA430C08BFC143F0BD18
S3150800496000204FF4001616EB410F98BF16EB430FC5
S3150800497008BF16EB410F24BFC14305E016EB430FF2
S315080049800CBF61464CEA0551F0BD000070B44FF00B
S31508004990004591EA030F40F173806B40841A71EB6E
S315080049A0030603D2001BB141121973414FF4001CD0
S315080049B01CEB410F34BF7CEB430442E00C0DA4EB27
S315080049C01356352E4FDC45EAC323DB0A45EAC121D7
S315080049D0C912B6F120050DDD63FA05F6EB4086EA45
S315080049E00305124218BF45F00105C01851F1000130
S315080049F00CD213E062FA06F5F2405540F3415A40EC
S31508004A00B340F3405A408018594107D349085FEA32
S31508004A1030005FEA350528BF45F0010501F580112C
S31508004A20420875F1004250F1000041EB04514E0076
S31508004A3016F5001F70BC38BF70470020090D090520
S31508004A4070471CEB410F10D252EA43060BD0BCEB61
S31508004A50410F05D80C0DAB43661E342EB6DD02E0B9
S31508004A60AB438018594170BC704770BC7047000052
S31508004A7070B44FF0004591EA030F7FF58FAF6B4096
S31508004A80841A71EB030604D26E40001BB141121959
S31508004A9073414FF4001C1CEB410F34BF7CEB4306FB
S31508004AA083E00C0DA4EB1356362E00F37C80012E02
S31508004AB045EAC32341DC43EA525312BFD2029202AB
S31508004AC05B08240545EAC12141EA5051D2EBC020D2
S31508004AD0994125D407D1B0FA80F610FA06F162D0CA
S31508004AE00020203608E0B1FA81F6B140C6F120026E
S31508004AF020FA02F21143B0404FEAF474B4EB46547C
S31508004B0034F001064FEA74040AD8D6F50016760D75
S31508004B1004F00044F04061FA06F25040F140484083
S31508004B20C00A40EA415021F0004128BF5FEA50051B
S31508004B3050F1000044EBD12135E0DB0A45EAC121FA
S31508004B40C90AB6F120050EDD42EA0242120CC5F189
S31508004B50200603FA06F6EB4042EA06056D4298413E
S31508004B6061F100010DE062FA06F5F240554063FA7C
S31508004B7006FC82EA0C02F3405A406D42904161EB12
S31508004B80030111F4801F05D1641E620502D06D0071
S31508004B904041494121F48011430875F1004350F121
S31508004BA0000041EB045170BC70471CEB410F15D255
S31508004BB023F0004352EA43060BD04FEA4C0CBCEBF9
S31508004BC0410F04D80C0D661E342EB7DDEBE7801AAC
S31508004BD0994150EA410608BF0021E4E708BF1CEBEB
S31508004BE0430F28BF6FF00001DDE738B500210166E5
S31508004BF081668180002200F1F4014266C266C281A4
S31508004C00CA704A71CA60002300F591728B700B71E5
S31508004C108B604B611370537000258A7E04E000EBAD
S31508004C2044045B1CA4F87450DCB29442F7DB0D70A4
S31508004C300D830021BDE83440343000F00FB900215F
S31508004C40017000228280C1808181C2814182027006
S31508004C500162416202852C30818041700270827146
S31508004C60C27141894180704770B50146FF220E79AD
S31508004C706A4C002304EB8300406A18B9042A0ADD4B
S31508004C801A4608E00579B54202BF00680D68A842D1
S31508004C9004BF1A4604235B1CDBB2042BEADB10466E
S31508004CA004284EDA04F12403241D43F820100025B5
S31508004CB044F830500B689868C0071AD45C6824F02A
S31508004CC004045C600420186020255C68544824F0BD
S31508004CD020045C601D609C68044044F000449C60AD
S31508004CE09868C00FFCD19C684E48044044F0010403
S31508004CF09C60186B000900011863087904460A2CA1
S31508004D00054605D2022606FA00F000F01CF807E070
S31508004D10022606FA00F00A3C00F015F840F000708A
S31508004D20C40D143304F004048968E318000D00F078
S31508004D301F001C6807258540AC4301FA00F0204394
S31508004D401860104670BD40EA856004EB440440EAEA
S31508004D500450704710B5314901EB80000222416AC0
S31508004D60087982400A2842EA806204D200EB4000B1
S31508004D7042EA005206E00A3800EB400042EA0052D6
S31508004D8042F00072086850F8303F120D23F4F863B9
S31508004D9002F4F8621A43026022480A68136C94689F
S31508004DA0044044F004049460086802685207FCD57D
S31508004DB0006C80B210BD194B59780246002011B913
S31508004DC001201A705870704714494A78022A4FF61B
S31508004DD0FF7002D1488800224A70704738B50F4CD8
S31508004DE06178012914D12078FFF7B4FF2378608011
S31508004DF00221617004EBC305696849B1002262703B
S31508004E0001461846AA686B6801B0BDE830401847E5
S31508004E1031BD02484078704700000000401F00205E
S31508004E20C0FFFF3FC0FFFF7F10B5418B828B511833
S31508004E304908002204E0036A94B223F81410521CAD
S31508004E40048B93B2A342F6D38180C180002180F8F7
S31508004E50251010BD4FF6FF710182704781607047BB
S31508004E600178012903D100690021FFF7F7BF7047D0
S31508004E7081680847344900224A648A640978002907
S31508004E8018BF00F001B870472DE9FC410646002717
S31508004E902E4C2D4D00F028F9062110FB01F005EBEC
S31508004EA0470800B20028B8F9341044BF404200B29F
S31508004EB08842A2BF221D32F9171081422FDB281D16
S31508004EC0C05D00281CBFB8F91410002927D040F689
S31508004ED0B932914223DAB8F9241000FB061000B261
S31508004EE000F008F90090BDF90210B8F91400BDF9F0
S31508004EF00020EB1911FB00F112FB00F2187B00B140
S31508004F004942A86C931302EB5342A0EBE230A86423
S31508004F108A13686C01EB524100EBE13068647F1C30
S31508004F20012FB7DDBDE8F3810848074A01781170FB
S31508004F30704705490020087070470348406C704761
S31508004F400148806C70470000600B00204C0B002065
S31508004F5070B503461C785D889E8820460D4331430C
S31508004F600A2825EA0202998003D1110005D10B24EB
S31508004F7002E0110001D00A2420461C705A8070BD38
S31508004F80C08870470148006800F0F0B82C1300206C
S31508004F90F0B5B0F90430B0F91450B0F91660B0F9AC
S31508004FA0062000244B43AAB1514382688F1806D5C0
S31508004FB0002AC8BF002906DD6FF0004703E0002A73
S31508004FC044BF00290D4FC268BA4203DB0269BA42E0
S31508004FD0B8BF3A46878B3B41C78B42FA07F1CB18D5
S31508004FE09D4202DAEC1A2B4603E0B342BCBFF41A20
S31508004FF03346A418846018B2F0BD00BF01000080D3
S3150800500010B50146002914DD00220B488142ACBFC9
S315080050104FF40053802391FBF3F0C01800EBD070D7
S315080050204010984204D0521CD4B2062C0346F2D340
S3150800503010BD002010BD00BF01002000B0F90C0013
S31508005040704710B5416F4968012280F842206FF019
S315080050500103426F5468236100224A638A63CA6364
S315080050600A69D307FCD54A6C42F400424A64416F88
S3150800507001F16C02937B022B0CD1896912888A6133
S31508005080416FB1F86E20C9698A61406FB0F8701037
S31508005090006A816110BD002141824175002200F13C
S315080050A09601027500F21B100A704A708A70CA705F
S315080050B00A710270427082707047002800D17047EA
S315080050C010B5029C0160C4604260836010BD10B5D3
S315080050D00446206BE16B8847802084F8C800A16BE2
S315080050E0206BBDE8104008470148006800F056B834
S315080050F02C130020A0F500400004800DC2B2C0F1B8
S31508005100FF0110F4407081B0C9B2174B17D0B0F543
S31508005110807F1DD0B0F5007F03D0B0F5407F07D063
S315080051201FE033F81220ADF8022033F9111016E00B
S3150800513033F81110ADF8021033F9121006E033F9FE
S3150800514012205242ADF8022033F91110494206E006
S3150800515033F911104942ADF8021033F91210ADF8BF
S315080051600010009801B0704790940008014601208D
S315080051700B7B012B4FF0FF3204D00ED3032B07D045
S3150800518003D37047B1F90E1004E0B1F9101001E02D
S31508005190B1F91210002948BF104670470146002091
S315080051A00A7B012A08BFB1F90E0070472DE9FE43B4
S315080051B00746164600F050FADFF83845607910B908
S315080051C05EB3206000E046B300F0A6FA0A2815D1BF
S315080051D002200C2160722171002001900090EF22BC
S315080051E0637A0B213846FCF75BF9FCF7A0F910F552
S315080051F0FA6041F10001C4E91001D1E100F08CFA2E
S315080052000B280DD10D20207100F08CFAA0710C2707
S3150800521000F08EFA0020A081ACE10020207146E063
S31508005220C82E02D1C8202071B8E1DFF8CC54206816
S31508005230B5F80080014638B9B01E022884BF801F21
S31508005240022808D8052606E040456888B8BF4146C2
S315080052508842B8BF014621602671B4F90A00E26C9B
S315080052602EB3012E42D0022E4ED0032E5FD0042E2E
S3150800527000F0AB80052E00F09581062E00F0968191
S31508005280072E00F0A181082E00F0C180092E00F03B
S31508005290F4800A2E00F027810B2E00F05A810C2E7E
S315080052A09AD00D2EB0D00E2E00F06F8176E1002038
S315080052B000900023022208210320FBF7FDFD0127A9
S315080052C00460A0640320FCF7CAF81621DFF82C2432
S315080052D048431044A26CC0F80B2000202060A0713F
S315080052E04FF0FF320120E271607143E1217A2068B4
S315080052F018B1012905D102273CE111B90121A07194
S3150800530021720020E06049E10846E06494F907103C
S31508005310484300F087F900F011FAFFF733FE608181
S315080053200020A081FCF703F900F065F94BE000F0D6
S31508005330F9F988B900F0F0F90646FCF7F8F8D4E967
S315080053400423994221D301D890421ED3A089411C37
S31508005350A1816A89904214D300F0F6F900F0E8F9C1
S315080053600020A081FCF7E3F82A8A002382184B4123
S31508005370688AE1894843121843EBE073C4E90623B7
S3150800538001E1FCF7D4F800F036F9052E18BF062E11
S3150800539019D1E56C002D48BF6D4200F0DBF9B4F970
S315080053A00A1010FB01F106204143E06C081A48BFB9
S315080053B04042ED000A2195FBF1F1814203DB002012
S315080053C0E0600427D6E00327D4E000F076F9042746
S315080053D0082805D1FCF7ABF8C4E90801082706E058
S315080053E00A2804D1FCF7A3F8C4E90C010A27B4F982
S315080053F00A0094F90710814202D000F00FF9B9E0CB
S315080054002168E26C8A42FAD000F0E8F8B2E0B5F812
S31508005410169008279142C9F1000608DA94F9072080
S31508005420824202D100F0DAF801E000F0F7F800F065
S3150800543044F908280DD02068E16C8142B8BF4E4671
S3150800544007DB00F0CEF802D100F0D1F801E000F059
S31508005450E5F8FCF76CF8D4E9082399420CD301D88F
S31508005460904209D300F0CEF8FCF761F82A8B0023A6
S3150800547080185941C4E908017CE0B5F81C90092751
S315080054809142C9F1000608DA94F90720824202D14E
S3150800549000F0A4F801E000F0C1F800F00EF90928C0
S315080054A00DD02068E16C8142B8BF4E4607DB00F09C
S315080054B098F802D100F09BF801E000F0AFF8FCF78D
S315080054C036F8D4E90A23994254D301D8904251D3E5
S315080054D000F098F8FCF72BF8EA8B0023801859415E
S315080054E0C4E90A0146E0B5F822900A279142C9F1B3
S315080054F0000608DA94F90720824202D100F06EF815
